:020000040800F2
:1000000088550020150300081B4C00081D420008FD
:10001000B14B0008691D00081DAE0008000000007B
:10002000000000000000000000000000D185000872
:10003000BD2D000800000000DB1C0008A58E000894
:100040002F0300082F0300082F0300082F030008C8
:100050002F0300082F0300082F0300082F030008B8
:10006000C12D0008E52D00081D2E00082F030008F3
:100070002F0300082F0300082F0300082F03000898
:100080002F0300082F0300082F0300082F03000888
:100090006D1D0008411E00082F030008552E0008A2
:1000A0002F0300082F0300082F0300082F03000868
:1000B0008D8F0008D98F00082F0300082F03000838
:1000C0002F0300082F0300082F0300082F03000848
:1000D0002F0300082F0300082F030008A1A8000821
:1000E0002F0300082F0300082F03000819910008B0
:1000F0002F0300082F0300082F0300082F03000818
:100100002F03000849840008C99000082F03000845
:100110002F0300082F0300082F0300082F030008F7
:10012000FD2A00082F030008F12B00082F03000808
:100130002F0300082F0300082F0300082F030008D7
:10014000151F0008751F00082F0300082F03000863
:10015000112C00082F030008392C00082F03000879
:100160002F0300082F0300082F0300082F030008A7
:100170002F0300082F0300082F0300082F03000897
:100180002F0300082F03000800F002F800F0B2F877
:100190000AA090E8000C82448344AAF10107DA45E2
:1001A00001D100F0A7F8AFF2090EBAE80F0013F082
:1001B000010F18BFFB1A43F00103184770D300006A
:1001C00090D300000A444FF0000C10F8013B13F0EC
:1001D000070408BF10F8014B1D1108BF10F8015BA0
:1001E000641E05D010F8016B641E01F8016BF9D193
:1001F00013F0080F1EBF10F8014BAD1C0C1B09D1EA
:100200006D1E58BF01F801CBFAD505E014F8016B5B
:1002100001F8016B6D1EF9D59142D6D370470000ED
:100220000023002400250026103A28BF78C1FBD8FF
:10023000520728BF30C148BF0B6070476E2900F0DD
:100240004783702900F06B8166290CF04B87652984
:100250000CF0488767290CF0458761290CF044872A
:1002600003681B0A28BF41F08001692900F0DC8087
:10027000642900F0D980752900F0D6806F2900F03C
:100280002686782900F03781E92900F0C185E42924
:1002900000F0BE85F52900F0BB85EF2900F023862C
:1002A000F82900F036810368DB0928BF41F080019E
:1002B000632901F03980732901F03E80E32901F0C0
:1002C0004980F32901F04E80002070471FB50CF0E3
:1002D00004FF00F013FE0400002000210CF074F86D
:1002E000401C6060002000210CF058F8E0601FBD49
:1002F00010B510BD01F0D0F81146FFF7E7FF0BF085
:1003000001F801F0F7F803B4FFF7F2FF03BC01F0C6
:10031000FBF800000948804709480047FEE7FEE770
:10032000FEE7FEE7FEE7FEE7FEE7FEE7FEE7FEE7A5
:1003300004480549054A064B70470000C18E000875
:1003400089010008884D0020885500208851002030
:100350008851002072B6704762B67047EFF3108084
:1003600072B6704780F31088704730BF704720BF67
:100370007047B0FA80F0704790FAA0F0B0FA80F0C1
:10038000704790FAA0F070471CB50C46064B7B44B2
:1003900069460090204600F0C4FC044600206946EF
:1003A00000F0D2FC20461CBDB70900000FB41CB5FC
:1003B000084B06AA7B4469460090059800F0B1FC02
:1003C00004460020694600F0BFFC20461CBC5DF8D6
:1003D00014FB00009109000070B5044685690068AF
:1003E000C10601D5302600E02026C00707D070BD29
:1003F000D4E9012130469047206A401C20626D1EDE
:10040000F6D570BD70B5044685690078C00707D180
:1004100070BDD4E9012120209047206A401C206251
:100420006D1EF6D570BD00002DE9F0410646002492
:1004300010687529314616A510D000F0B5F90028CE
:1004400002DA404213A507E031688A0701D512A5F8
:1004500002E0490704D511A5012401E000F0ADF93F
:1004600000210A2206F1240709E0B0FBF2FCB0FBF0
:10047000F2F302FB1C00303078541846491C002867
:10048000F3D123462A463046BDE8F04100F0C7B913
:10049000000000002D0000002B00000020000000E4
:1004A000F0B40D460188090502D5214C7C4402E0D8
:1004B0001F4C7C440E34002100F1240608E002F0B9
:1004C0000F071209E75D42EA03721B097754491CC2
:1004D00052EA0307F3D102780023120704D5702DE6
:1004E00006D009B1022311342246F0BC00F097B9BE
:1004F00001231034F8E770B504460D462146106814
:1005000000F05BF9024629462046BDE87040002312
:10051000C6E7D21D22F00703D3E90023C0E7036832
:10052000126843F0200303600823C3610023B7E788
:100530006CCE00002DE9F05F894604464FF0000ABA
:10054000DFF874B1FB44C0F820A02046E16888477A
:10055000002874D0252806D0D4E901219047206ACC
:10056000401C2062F1E700265F462046E16888478C
:100570002028054607DB312D05D2781910F8200C0C
:1005800008B10643F1E7B00701D526F00406C4F828
:100590001CA00027C4F818A02A2D09D028460AF06C
:1005A0000DFD38B304EB8708303DC8F8185019E04A
:1005B00059F8041B204604EB87029161E1688847E3
:1005C000012F054618D1E069002820DA26F0200620
:1005D0001DE0D8F8180000EB800005EB4000303833
:1005E000C8F818002046E168884705460AF0E6FC8E
:1005F0000028EED1012F0AD02E2D08D12046E16827
:1006000088477F1C0546022F46F02006C4DBA06900
:10061000002803DA404246F00106A061F00701D04D
:1006200026F010066C2D0BD0682D09D04C2D39D03A
:100630006A2D35D0742D35D07A2D33D016E038E0C0
:10064000E1682F4620468847B842054609D16C2FFD
:1006500026D04FF48060E16806432046884705466F
:1006600004E06C2F1AD04FF4807006430DB3A5F14F
:100670004100192802D8203546F400664A4629462A
:10068000204626604E46FFF7D9FD80B101280BD0E9
:10069000F61D26F0070000F1080956E74020E4E7C0
:1006A0008020D8E70020D6E706F104094DE7284668
:1006B00052E7206ABDE8F09FFCCD00004FF0000239
:1006C00000B5134694469646203922BFA0E80C5048
:1006D000A0E80C50B1F12001BFF4F7AF090728BF23
:1006E000A0E80C5048BF0CC05DF804EB890028BF9F
:1006F00040F8042B08BF704748BF20F8022B11F0C8
:10070000804F18BF00F8012B704700004FF0013CEC
:1007100050F8042B51F8043B9A4221D1A2EB0C0370
:10072000934313EACC1317D150F8042B51F8043B30
:100730009A4215D1A2EB0C03934313EACC130BD1CD
:1007400050F8042B51F8043B9A4209D1A2EB0C0358
:10075000934313EACC13DBD04FF00000704700BF87
:10076000D01A01BAB1FA81F101F0180122FA01F0B0
:10077000CB40C1F12001DBB2C0B2C01A2CFA01F3A8
:10078000D11A914311EAC311E6D1704770477047FF
:10079000704710B500F0B6FB006810BD10B50446F8
:1007A00000F0B0FB046010BD09684A0501D540B2F5
:1007B0007047C905FCD500B2704709684A0501D5E4
:1007C000C0B27047C905FCD580B2704770B50C4601
:1007D0000546012A05D02878800600D5EA6900235D
:1007E00002E0012305E05B1C934202D2E05C00289A
:1007F000F9D1A869E618C01AA861286A18442862C5
:100800002846FFF7E9FD04E0D5E9012114F8010BC2
:100810009047B442F8D32846FFF7F4FD70BD2DE9A8
:10082000F0470D4699469246044600F124080168B7
:10083000880604D5E06921F01001216000E0012064
:10084000A84201DD471B00E00027A1697A1902EBED
:100850000900081AA0612078C00602D42046FFF7DC
:10086000BBFD002608E0D4E901211AF806009047F4
:10087000206A401C761C20624E45F4DB2078C006BE
:100880000AD52046FFF7A8FD06E0D4E90121302073
:100890009047206A401C2062381EA7F10107F4DC53
:1008A00007E0D4E9012118F805009047206A401CB0
:1008B0002062281EA5F10105F3DC2046FFF7A2FD0A
:1008C0002078000602D50220BDE8F0870120FBE772
:1008D00011680268006A530501D508700AE0D30563
:1008E00001D5088006E0130603D5C217C1E900024E
:1008F00000E008600120704770472DE9FF4F0C466B
:100900001E464FF0FF378BB0D2E90001DDF8608062
:100910000A908A46C1F30A5505B93D4600210846AA
:100920004FF00000BAF1000F00F4400005DA00EBD0
:1009300080004FF4400101EA50004FEA9059B9F1AC
:10094000010F00DDB9460A9850EA4A000ED044F67D
:100950001050A5F2FF3545432F14B8F1000F1ED0FB
:100960007542291E1EDDC9F100021CE0B8F1010F1D
:100970004FF0000001D0302103E0F24305E02154A4
:10098000401CB042FBDB30460022002121540B9971
:10099000C1F80880C1E900200FB0BDE8F08FBD1B91
:1009A0006D1CDEE74A4600DA694206A800F0DEFC6C
:1009B00006AB93E8070003AB83E8070050460A99AB
:1009C00000F0A8FD8DE80700A0F500501F3800904A
:1009D0000398002D0ADD42F21F014A460844002315
:1009E00003A90390684601F011F809E0A0F5005052
:1009F0004A461F38002303A90390684601F01BF8FC
:100A00008DE807000004000C03D04FF0FF304108D0
:100A100000E01046B8F1000F03D000220092154606
:100A20001EE0751E05D400F071FA303262556D1E5D
:100A3000F9D5B3460122084302D000227F1C04E00E
:100A40002078302801D100227F1E002A099784D007
:100A50001DE0112D07DA00F059FA303262556D1C95
:100A600050EA0102F5D1084302D00098C8B10EE067
:100A70000021681E05E0235C625C63542254401E22
:100A8000491C8142F7DBAB46A81B401E09900020A1
:100A900004F80B000B98099AC0F80880C0E9002BF5
:100AA0007AE711264FF0000857E72DE9F04F884606
:100AB0000446D21D22F0070191B0D1E90001CDE931
:100AC0000A010AF00DFA02460B98C00F01D02D2042
:100AD00007E02068810701D52B2002E0202101EAF0
:100AE000C000032A099001D0072A05DB03464146CE
:100AF000204600F0CFFB0BE12078800601D5E069AD
:100B000000E00620B8F1650F814606D0B8F1660F07
:100B100018D0B8F1670F70D131E00020B9F1110F92
:100B2000009001DB112301E009F101030AAA01A9E8
:100B30000CA8FFF7E2FEDDE90C70002609F10105C3
:100B4000834647E001204B4600904FF000470AAA39
:100B500001A90CA8FFF7D1FEDDE90DB00C995D46A7
:100B6000002610B909F101000D18B9EB050003D4F6
:100B7000C0F1FF3609F10105A5EB09002BE0B9F141
:100B8000010F01DA4FF001090020B9F1110F0090B7
:100B9000484601DD112300E003460AAA01A90CA87A
:100BA000FFF7ABFEDDE90C704D460026834620784A
:100BB00000070AD4AB4500DA5D4601A8012D04DD2B
:100BC000411911F8011C302907D04F4502DA17F1FD
:100BD000040F04DA012082460FE06D1EEEE7002FBD
:100BE00002DCED1B3E4403E0781CA84200DD7D1CC6
:100BF000B81B00F1010A4FF000472078000703D42A
:100C0000AA4501DB4FF0FF3A0021B7F1004F0DF18B
:100C100043088DF8431024D002202B23002F01DA43
:100C20007F422D230A21021EA0F1010000DC5FB1EA
:100C300097FBF1FC97FBF1F201FB1C7C17460CF1D2
:100C4000300C08F801CDEEE7A8F10100037021880F
:100C5000090501D5452100E06521A0F1010800F852
:100C6000011C09980FA9A1EB0807FF1D00B1012085
:100C7000411901EBEA70A1693844081A401EA061CD
:100C80002078C00602D42046FFF7A6FB099828B1B9
:100C9000D4E901219047206A401C20622078C006D8
:100CA00022D52046FFF798FB1EE0002E04DBB3455B
:100CB00002DD01A8805D00E03020D4E901219047E9
:100CC000206A401C2062761CAAF101005FEA000A3B
:100CD0000AD100F013F9C0680168405CD4E9012131
:100CE0009047206A401C2062281EA5F10105DCDC2B
:100CF00007E0D4E9012118F8010B9047206A401C55
:100D00002062381EA7F10107F3DC2046FFF77AFBCB
:100D1000032011B041E6000001694A1C0261087815
:100D2000704700B58FB0CDE901310021059105492B
:100D30007944CDE9031011466846FFF7FBFB0FB07D
:100D400000BD0000E5FFFFFF0A6802F8010B0A6022
:100D5000704700002DE9FF5F15468A460446DFF81C
:100D6000AC80F8440027D8E900103E46CDE90010D9
:100D700010E03AF816106A4602A800F069FB411C20
:100D800007D02178890603D5E269391891420DD838
:100D90000744761C2078800602D5E069B84205DD5C
:100DA000AE42E6DB3AF816000028E2D1A069C01B8B
:100DB000A0612046FFF710FBD8E90010CDE9001034
:100DC000002017E03AF818106A4602A800F040FB2D
:100DD000B0F1FF3F81460BD000250DF1080B05E077
:100DE000D4E901211BF8050090476D1C4D45F7D350
:100DF00008F10100B0428046E4DB206A38442062FA
:100E00002046FFF7FFFABDE8FF9F0000F2C5000093
:100E10002DE9F0418046D21D22F007020025D2E9DB
:100E20000002F52915A614D0011E72F1000106DAA0
:100E30000023D0EB030063EB020211A608E0D8F810
:100E400000108B0701D50FA602E0490701D50EA6B9
:100E500001251146002408F1240704E000F056F8AB
:100E600030323A55641C50EA0102F7D12B46324623
:100E700021464046BDE8F041FFF7D1BC000000002C
:100E80002D0000002B0000002000000030B40021E5
:100E900000F1240408E002F00705D208303542EAE8
:100EA0004372DB086554491C52EA0305F3D1046818
:100EB000002310A2250707D5A40600D421B1C469D8
:100EC00001230DA2641EC46130BCFFF7A8BC10B59D
:100ED000044621461068FFF770FC02462046BDE834
:100EE00010400023D2E7D21D22F00701D1E90023F0
:100EF000CCE7000000000000300000000048704710
:100F0000484D002000487047284D002030B5B0F112
:100F10000A024FEA900E71F100034EEA817EB0EBB7
:100F20000E0061EB91014FEA101E4EEA017E10EBBC
:100F30000E0041EB11114FEA102E4EEA016E10EB3C
:100F40000E0041EB11214FEA104E4EEA014E10EB1C
:100F50000E0041EB1141401841F100014FEAD00071
:100F600040EA41704FEAD10110EB80054FEA81045D
:100F700044EA907444EB01046D1944EB0404521BE1
:100F8000A3414FF0000348BF0A3200D530BD401CDA
:100F900041F1000130BD00002DE9F04F04460D463F
:100FA000D21D22F0070089B0D0E9009748463946A3
:100FB00009F096FF0246F80F01D02D2307E02068C4
:100FC000810701D52B2302E0202101EAC0038DF81F
:100FD00020300BB1012000E00020032A824601D01E
:100FE000072A04DB2946204600F054F93FE1207827
:100FF000800601D40D2500E0E569C7F30A560D2DE2
:1010000049DA00214FEA175B08464FF00000002F35
:1010100000F4400007DA00EB80004FF4400100EBE1
:10102000D07001EA60008115012901DD4FF0FF3128
:1010300000224FEA850CBCF1180F06D31346ACF121
:1010400018004FF08052C24003E04FF4801323FA9F
:101050000CF30CF10C0CBCF1200F04D3ACF1200C00
:1010600009FA0CF001E007FA0CF000294FF00048F3
:1010700001DD18B90FE00ED140450CD319EB020980
:101080005F4121B9404502D19F4329EA0209BBEBE8
:10109000175F00D0761C2088000502D57B48784475
:1010A00002E07A487844193808AA302302F80A3056
:1010B000037C0AF10101002E0AF1020A53546A4628
:1010C00002DC4FF0300101E04FF031014FF0010838
:1010D0008DF8001002D0A6F2FF3603E059EA47016E
:1010E00000D06B4E002D02DC2178090704D54FF0AB
:1010F00002082E218DF80110C44600210BE0C7F331
:1011000003433F01C35C491C6D1E02F808300529EA
:1011100008F1010801DA002DF1DC00210CE000EB00
:101120001973491C1B786D1E082902F808304FEA14
:10113000091908F1010801DA002DF0DC21688B069D
:1011400002D516E0A8F10108E04505DD02EB080331
:1011500013F8013C302BF5D0B8F1000F09DD02EB9C
:10116000080313F8013C2E2B03D1090701D4A8F181
:101170000108002D05DD3E2102F808106D1E08F162
:101180000108407C002E02F8080008F1010804DA8A
:101190002D20764202F8080002E02B2002F8080019
:1011A0000A214FF47A70864208F101080BDB96FBA6
:1011B000F0F3303302F8083096FBF0F308F1010841
:1011C00000FB136601E0642E0CDB642096FBF0F359
:1011D000303302F8083096FBF0F308F1010800FB09
:1011E000136601E00A2E06DB96FBF1F0303002F8C0
:1011F000080008F1010896FBF1F001FB10603030A7
:1012000002F80800A16908F1010808EB050202EBE9
:101210000A00081AA0612078C00602D42046FFF711
:10122000DBF8216A08AE01EB0A00206204E0D4E991
:10123000012116F8010B9047BAF1010AF7D2207884
:10124000C00602D52046FFF7C7F86E4609E016F83B
:10125000010B3E280FD0D4E901219047206A401CA1
:101260002062B8F10108F2D22046FFF7CBF809B0AE
:101270000320BDE8F08F206A2844206203E0D4E90F
:101280000121302090476D1EEBD3F8E7D1C200005A
:1012900002FCFFFF2DE9F0411F46044603260168CA
:1012A000072A01F4006004DB08B116A505E016A5C5
:1012B00003E008B115A500E015A521F0100020609D
:1012C000A069C01EA0610FB1401EA0612046FFF7BB
:1012D00083F84FB1D4E9012138469047206A401C79
:1012E0002062C01C206206E0206AFAE7D4E90121EE
:1012F00015F8010B9047761EF8D22046FFF782F8CA
:10130000BDE8F0814E414E006E616E00494E4600D0
:10131000696E660010B5436913B1AFF3008001E058
:10132000FFF754FA012010BD127800F124010A7071
:1013300000224A700122EDE711684FF0FF32E9E721
:1013400010B5436913B1AFF3008001E0FFF702FD70
:10135000012010BD128800F1240182840022C28481
:101360000122EDE711684FF0FF32E9E72DE9F04780
:10137000814616468AB0354878440DC88DE80D0080
:1013800032487844801C03AC0DC884E80D0041F657
:101390009B300844372190FBF1F290FBF1F5A5F169
:1013A000800501FB12041B3C02D56442012000E0D1
:1013B0000020DFF898A080460027FA44AAF1BE0A70
:1013C0000EE0E0070AD03246684607EB47010123EA
:1013D0000AEB810100F02FFB8DE8070064107F1CF1
:1013E000002CEED1194F7F44AE3F19E0E80715D02D
:1013F00007EB04100DF1180A90E80E008AE80E00C1
:10140000C068F04201D1981908903246012306A91C
:1014100003A800F010FB03AB83E807006D10641C09
:10142000002DE3D14FF0010332466946B8F1000FB9
:1014300003A802D000F0EAFA01E000F0FCFAC9E9E2
:101440000001C9F808200AB0BDE8F08788C0000094
:1014500070B516460C46054600F044F8036893F84C
:101460000101012806D0FF2C0FD8185D68B10120BA
:101470002C7070BDD3F807013246214603F20713E2
:1014800003442846BDE8704018474FF0FF3070BD58
:1014900000487047284D00207546FFF7F9FFAE461B
:1014A00005006946534620F00700854618B020B570
:1014B000FEF73EFFBDE820404FF000064FF000076A
:1014C0004FF000084FF0000B21F00701AC46ACE8EC
:1014D000C009ACE8C009ACE8C009ACE8C0098D4659
:1014E0007047000010B5FFF709FD001D10BD00BFDB
:1014F000D9AE000010B50446AFF300802046BDE829
:101500001040FEF700BF704701491820ABBEFEE750
:10151000260002005FEA400C08BF91F0000F4FEA7E
:101520008C234FEAC12243EA51514FEA1C5018BFA5
:1015300000F5F0404FEA300018BF41F000415FEA8B
:101540006C5C00F02980BCF1FF3F08BF40F0804098
:101550007047130C06BF12044FF0100C4FF0000C34
:10156000130E04BF12020CF1080C130F04BF12017A
:101570000CF1040C930F04BF92000CF1020CD30F7A
:1015800004BF52000CF1010C11464FF00002A0F113
:101590001F00A0EB0C00704711F0004F08BF704710
:1015A00031F000413FF4D5AF0B0C06BF09044FF0FA
:1015B000100C4FF0000C0B0E04BF09020CF1080CCC
:1015C0000B0F04BF09010CF1040C8B0F04BF890041
:1015D0000CF1020CCB0F04BF49000CF1010CCCF153
:1015E0002003A0EB0C0022FA03F302FA0CF241EA0A
:1015F000030100F10100704720F07F4C80EA0300F6
:1016000023F07F47ACEB070303F57C5300F0004069
:1016100003F1FF032DE980494FEA154B09B44FEA66
:10162000144325EA0B4E24EA03480FF2042606EB86
:10163000132749083E785FEA320203FB0667C7F5C5
:10164000000707FB06F64FEA54374FEAD64606F185
:10165000020607FB066CCCF1005C4FEA1C472CEA43
:10166000074C07FB06F40CFB06F504EB15464FEAA6
:10167000961634BF00204FF000404FEAD13706FBEA
:1016800007FC4FEA1C4C0CFB0BF7D21B03FB0CF7BF
:1016900061EB07010CFB0EF7B0EB074072EB174252
:1016A0000CFB08F734BFA2EB0742B2EB074261EB39
:1016B00017414FEA0C444FEA910706FB07FC4FEA3B
:1016C0001C4C0CFB0BF7B0EBC74072EB573203FB23
:1016D0000CF734BFA2EBC742B2EBC74261EB573104
:1016E0000CFB0EF7B0EBC70072EB57720CFB08F760
:1016F00034BFA2EBC702B2EBC70261EB5771039F85
:101700004FEA816141EA921104EBCC044FEAD137F0
:101710004FEA826206FB07FC42EA90124FEA8060C1
:101720004FEA1C4C0CFB0BF7D21B03FB0CF761EBD5
:1017300007010CFB0EF7B0EB074072EB17420CFBF6
:1017400008F734BFA2EB0742B2EB074261EB174147
:101750004FEA8C554FEA910704EB9C2406FB07FCEB
:101760004FEA1C4C0CFB0BF7B0EBC74072EB573247
:1017700003FB0CF734BFA2EBC742B2EBC74261EBED
:1017800057310CFB0EF7B0EBC70072EB57720CFB36
:1017900008F734BFA2EBC702B2EBC70261EB577187
:1017A00015EB4C254FEA816141EA92114FEA8262C2
:1017B0004FEAD13742EA901206FB07FC44F10004DD
:1017C0004FEA80604FEA1C4C0CFB0BF7D21B03FB6B
:1017D0000CF761EB07010CFB0EF7B0EB074072EB67
:1017E00017420CFB08F734BFA2EB0742B2EB0742EB
:1017F00061EB174115EB1C154FEA813141EA92412B
:101800004FEA823242EA90424FEA80304FEA0C7649
:1018100044F1000448EA03434EEA0B484FF0000E3F
:10182000B2EB080C71EB030724BF624639464EEB5E
:101830000E0E4FF0000B0018524149414BEB0B0BC1
:10184000B2EB080C71EB03077BF1000B24BF62467F
:1018500039464EEB0E0E4FF0000B00185241494135
:101860004BEB0B0BB2EB080C71EB03077BF1000B9E
:1018700024BF624639464EEB0E0E51EA020718BFEE
:1018800046F0010616EB0E7655F1000254F1000108
:1018900003D5BDE88901BDE80088BDE88901BDE840
:1018A0000048B619524141EB0101A3F10103704711
:1018B00080807F7E7D7C7B7A79787776767574738D
:1018C000727171706F6E6E6D6C6C6B6A6A6968684C
:1018D000676666656464636362616160605F5F5EE2
:1018E0005E5D5D5C5C5B5B5A5A5959585857575658
:1018F00056555555545453535252525151505050BD
:101900004F4F4F4E4E4D4D4D4C4C4C4B4B4B4A4A0E
:101910004A49494948484847474747464646454552
:10192000454444444443434343424242424141418B
:10193000002B9C4630D477002BD01CB54FEA3707DC
:1019400003B44FF010004FF01001BAF1000F06D0B1
:10195000BCF1000FDCBF40F0080040F008014FF080
:1019600000000FBCBDE810400BF1010BBBF1010FF3
:1019700008BF5FEA170722BF12F1010211F101014E
:101980004FF0004143F1000300F0004043EA000043
:101990007047F9D35708D0E746EA064613F1400FDF
:1019A0004FEA16461FDD13F1200FDFBF16430A462C
:1019B000002120335B42BED0C3F1200746EA064631
:1019C00002FA07F74FEA164646EA0706C3F1200770
:1019D00022FA03F201FA07F721FA03F14FF00003AC
:1019E00042EA0702A7E746EA020646EA06464FEA47
:1019F000164646EA0106BCBF46EA0646360C4FF0DC
:101A000000034FF000024FF0000194E72DE9804CF5
:101A10009A46934670B491E8380007C831EA400C02
:101A200048BF34EA430C03D5FFF7E6FDFFF780FF1C
:101A3000F0BCBDE8008C2DE9804C9A46934670B40A
:101A400091E8380007C810F0804F08BF13F0804FAE
:101A500003D100F005F8FFF76BFFF0BCBDE8008C88
:101A600020F07F4780EA030023F07F4C07EB0C0354
:101A7000A3F57C5300F00040A3F1FE0392F0000FA9
:101A800000F0B38095F0000F00F077802DE9014958
:101A90004FEA11404FEA144621EA004800FB06FCD9
:101AA00024EA064708FB06F607FB08F800FB07F7E1
:101AB00018EB06484CEB164C4FEA124B18EB074854
:101AC0004FEA15464CEB174022EA0B4E0BFB06FC87
:101AD00025EA06470EFB06F607FB0EFE0BFB07F793
:101AE0001EEB064E4CEB164C4FF000061EEB074E5D
:101AF0004CEB174B18EB0B0840F1000018EB0E0BEA
:101B000058EB000840F100008F1A4FF000013CBF75
:101B1000C943661B14BFB5EB040C00213CBFC9438D
:101B2000F61B4FEA17444EEA8E0E27EA04454FEAA9
:101B30001C4704FB07622CEA074C05FB07F70CFB6C
:101B400005F604FB0CFC16EB074642EB174216EBBE
:101B50000C4642EB1C421BEB060658EB02024141CD
:101B600046EA9E0601D5BDE80189B619524141EB0E
:101B70000101A3F10103BDE801894FEA14454FEAD1
:101B8000114724EA054621EA074C05FB07F406FB4A
:101B900007F70CFB06F105FB0CFC11EB074144EBCE
:101BA00017444FEA124711EB0C4144EB1C4422EA64
:101BB000074C05FB07F206FB07F70CFB06F605FBD7
:101BC0000CFC16EB074642EB174216EB0C4642EBB9
:101BD0001C456A1854F1000148BF7047B6195241BC
:101BE00041EB0101A3F10103704795F0000F37D0DD
:101BF0004FEA11424FEA144721EA024624EA074C11
:101C000002FB07F106FB07F70CFB06F402FB0CFCDA
:101C100014EB074441EB17414FEA154714EB0C4412
:101C200041EB1C4125EA074C02FB07F506FB07F7D1
:101C30000CFB06F602FB0CFC16EB074645EB1745C2
:101C400016EB0C4645EB1C42121951F1000148BF3E
:101C50007047B619524141EB0101A3F101037047EE
:101C60004FEA14454FEA114724EA054621EA074C9A
:101C700005FB07F106FB07F70CFB06F24FF0000629
:101C800005FB0CFC12EB074241EB174112EB0C4237
:101C900051EB1C4148BF7047921841EB0101A3F181
:101CA0000103704722484FF6FF710170002080F356
:101CB00009882048016881F308881F484FF0805147
:101CC000016062B6FEE71C484FF08051016070472A
:101CD00019484FF080510160704772B6EFF30980E8
:101CE00050B11EF0100F08BF20ED108A203880E898
:101CF000F00F12490968086000B5114880475DF887
:101D000004EB104810490A7802700C480F490A6821
:101D10000260106890E8F00F20301EF0100F08BF2E
:101D2000B0EC108A80F309884EF0040E62B670475A
:101D300022ED00E0A410002004ED00E09C10002043
:101D40006D6100081210002013100020A010002068
:101D5000816841F08041816070471FB5684606F098
:101D6000EDFA019804B010BD00BFFEE710B586B0D3
:101D700001AA00212E4800F098FA2E49019831F866
:101D800010002D49097888424FDA2A49019831F824
:101D9000100000EB8000294901EB8000007A9DF8DB
:101DA0000E10884241D12349019831F8100000EB10
:101DB0008000224911F82000B8BB1E49019831F873
:101DC000100000EB80001D4901EB8000007C012821
:101DD0002BD11849019831F8100000EB8000174909
:101DE00001EB8000407C00BB00240FE00DF10F00F0
:101DF000005D104A019932F8111001EB81010F4A80
:101E000002EB810149680855601CC4B29DF80E00C0
:101E1000A042EBDC074A019932F8111001EB810175
:101E2000064A02EB8101C868804706B010BD000079
:101E30000064004000060020980200209403002067
:101E400010B586B001AA01212E4800F02EFA2E49C5
:101E5000019831F810002D490978884250DA2A4952
:101E6000019831F8100000EB8000294901EB800057
:101E7000007A9DF80E10884242D12349019831F82A
:101E8000100000EB8000224911F82000C0BB1E4961
:101E9000019831F8100000EB80001D4901EB800033
:101EA000007C01282CD11849019831F8100000EB72
:101EB0008000174901EB8000407C012820D10024DC
:101EC0000FE00DF10F00005D0F4A019932F811107B
:101ED00001EB81010E4A02EB810149680855601C43
:101EE000C4B29DF80E00A042EBDC074A019932F81B
:101EF000111001EB8101064A02EB8101C86880479D
:101F000006B010BD006400400006002098020020CA
:101F10009403002010B586B001AA0021124800F0F9
:101F2000C4F900240FE00DF10F00005D0F4A019984
:101F300032F8111001EB81010D4A02EB8101496871
:101F40000855601CC4B29DF80E00A042EBDC074AA5
:101F5000019932F8111001EB8101054A02EB810170
:101F6000C868804706B010BD006800400006002029
:101F70009403002010B586B001AA0121124800F098
:101F800094F900240FE00DF10F00005D0F4A019954
:101F900032F8111001EB81010D4A02EB8101496811
:101FA0000855601CC4B29DF80E00A042EBDC074A45
:101FB000019932F8111001EB8101054A02EB810110
:101FC000C868804706B010BD0068004000060020C9
:101FD000940300200EB50121480606F07FF917484A
:101FE00000F030F80121880606F078F9144800F076
:101FF00029F800208DF806008DF807008DF80800FC
:102000008DF809008DF80A0001208DF80B000020E2
:102010008DF8020001208DF8030002208DF80400E5
:102020008DF805000620ADF800006946034800F071
:10203000B2F86946024800F0AEF80EBD00640040F8
:102040000068004010B504460B48844209D10121C4
:10205000480606F053F900214FF0007006F04EF9E3
:1020600008E00121880606F049F900214FF0806060
:1020700006F044F910BD00000064004010B50021D6
:10208000837A012202FA03F13D4A126842F001020A
:102090003B4B1A603A4A1C3212688A43384B1C3355
:1020A0001A60027BCAB9364A0C3212688A43344B32
:1020B0000C331A604288C38842EA0343304A4032F4
:1020C000847A42F834300288838842EA03432C4AF7
:1020D0004032847A02EBC4025360027B012A19D198
:1020E000274A0C3212680A43254B0C331A60428887
:1020F000038842EA0343224A4032847A42F8343069
:10210000C288838842EA03431D4A4032847A02EB44
:10211000C4025360C27A3AB9194A121D12688A433E
:10212000174B1B1D1A6006E0154A121D12680A4360
:10213000134B1B1D1A60028932B9114A14321268FE
:102140008A430F4B14331A600289012A06D10C4AC4
:10215000143212680A430A4B14331A60427B012A74
:1021600006D1074A1C3212680A43054B1C331A6019
:10217000034A126822F00102014B1A6010BD0000F0
:10218000006600401AB143690B43436102E04369B2
:102190008B434361704730B502460020002314682A
:1021A00024F002041460146844F00104146000E098
:1021B0005B1C546804F001041CB94FF6FF74A34281
:1021C000F6D1546804F001040CB900206CE08C795D
:1021D000012C04D1146844F08004146003E01468F6
:1021E00024F080041460CC79012C04D1146844F0EC
:1021F0004004146003E0146824F0400414600C7A76
:10220000012C04D1146844F02004146003E0146825
:1022100024F0200414604C7A012C04D1146844F09A
:102220001004146003E0146824F0100414608C7A25
:10223000012C04D1146844F00804146003E014680D
:1022400024F008041460CC7A012C04D1146844F002
:102250000404146003E0146824F0040414608C780F
:10226000A407CD7844EA05640D7944EA05444D7924
:1022700044EA05540D886D1E2C43D461146824F083
:1022800001041460002300E05B1C546804F00104A6
:102290001CB14FF6FF74A342F6D1546804F0010458
:1022A0000CB1002000E0012030BD10B500F5D8735E
:1022B00003EB01131B6803F004031372137A53B981
:1022C00000F5D87303EB01131B6840F2FF7404EAB6
:1022D0005353136009E000F5D87303EB01131B6837
:1022E0006FF0604404EAD303536000F5D87303EB46
:1022F00001131B6803F00203537200F5D87303EB5C
:1023000001135B6803F00F03937200F5D87303EBBE
:1023100001135B681B0AD37400F5D87303EB011338
:102320009B68D37200F5D87303EB01139B681C0AFA
:10233000147300F5D87303EB01139B681C0C5473E2
:1023400000F5D87303EB01139B681B0E937300F524
:10235000D87303EB0113DB68D37300F5D87303EB79
:102360000113DB681C0A147400F5D87303EB011326
:10237000DB681C0C547400F5D87303EB0113DB68A5
:102380001B0E937421B9C36843F02003C36003E0BC
:10239000036943F02003036110BD00000B49096885
:1023A00041F00101094A11601146096843F60E72B5
:1023B0009143064A11601146096841EA0021116003
:1023C0001146096821F00101116070470066004064
:1023D00010B502460020936803F08063B3F1806F6C
:1023E00000D110E0936803F00063B3F1006F01D1F6
:1023F000012008E0936803F08053B3F1805F01D1BE
:10240000022000E00420042874D002F5C07303EB1E
:1024100000131B6803F0010402F5C07303EB001303
:102420001C600B7A7BB94B7A0C8843EA445302F563
:10243000C07404EB00142468234302F5C07404EB59
:102440000014236010E00B7A4C6843EAC4034C7A12
:10245000234302F5C07404EB00142468234302F5FF
:10246000C07404EB001423608B7A03F00F038B72AB
:1024700002F5C07303EB00135B6823F00F0402F551
:10248000C07303EB00135C6002F5C07303EB001331
:102490005B688C7A234302F5C07404EB001463601C
:1024A0008B7B1C064B7B44EA03440B7B44EA0323EF
:1024B000CC7A234302F5C07404EB0014A3608B7C38
:1024C0001C064B7C44EA03440B7C44EA0323CC7B8C
:1024D000234302F5C07404EB0014E36002F5C073FB
:1024E00003EB00131B6843F0010402F5C07303EB18
:1024F00000131C6010BD10B501F092FE00F074FADC
:1025000000F01EFAFFF766FD00F056F800F052FAF0
:1025100010BD10B500F020F800F01AF810BD000052
:1025200010B5002400BF00BFFDF718FF044600BF30
:1025300000BF1021054802F03DFB00BF00BF204650
:10254000FDF710FF00BF00BF10BD000020360020C7
:1025500010B5FFF7E5FF10BD10B500200249086077
:1025600000F00AF810BD0000CC0F002001490860FF
:1025700070470000CC0F002010B5FFF7EEFB0446BB
:102580000848006840F0807006490860002006494D
:1025900048600846006840F0010008602046FFF7E8
:1025A000E5FF10BDFCED00E0001000E001494868C7
:1025B00070470000001000E02DE9F047F4B000245F
:1025C000A1464FF00F0A002500260027A0467021E3
:1025D00058A8FEF773F870213CA8FEF76FF8702139
:1025E00020A8FEF76BF8702104A8FEF767F80F200B
:1025F000FFF7D4FE00BF62E004EB8400CE4911F87F
:102600002000002859D104EB840001EB8000007CFD
:10261000012824D104EB840001EB8000407C70B9D8
:1026200004EB840001EB800040884FF6FF7101EA63
:10263000401058A921F81500681C45B23DE004EB94
:102640008400BD4901EB800040884FF6FF7101EA2C
:1026500040103CA921F81600701C46B22DE004EB96
:102660008400B54901EB8000007C022825D104EBF1
:10267000840001EB8000407C70B904EB840001EB26
:10268000800040884FF6FF7101EA401020A921F830
:102690001700781C47B210E004EB8400A64901EB58
:1026A000800040884FF6FF7101EA401004A921F82C
:1026B000180008F101004FFA80F8601C44B29F48EE
:1026C0000078844298DB002409E0681E58A931F89C
:1026D0001000291958AA22F81100601C44B2681E83
:1026E000C11700EB91718910A0EB8101C1F10301C9
:1026F000A142EADC002409E0701E3CA931F8100078
:1027000031193CAA22F81100601C44B2701EC11796
:1027100000EB91718910A0EB8101C1F10301A1428D
:10272000EADC002409E0781E20A931F810003919EC
:1027300020AA22F81100601C44B2781EC11700EBD9
:1027400091718910A0EB8101C1F10301A142EADC82
:1027500000240BE0A8F1010004A931F8100008EBF7
:10276000040104AA22F81100601C44B2A8F101007F
:10277000C11700EB91718910A0EB8101C1F1030138
:10278000A142E7DC01208DF80B0000208DF80C0041
:1027900001208DF80D00002D30DD002427E009F028
:1027A000FF008DF80A0009F101004FFA80F9A0003E
:1027B00058A931F81000ADF80000A000401C31F815
:1027C0001000ADF80200A000801C31F81000ADF838
:1027D0000400A000C01C31F81000ADF80600002075
:1027E000ADF808006846FFF749FC601C44B2681E5B
:1027F000C11700EB9171B4EBA10FD0DD002E30DDDD
:10280000002427E009F0FF008DF80A0009F101001B
:102810004FFA80F9A0003CA931F81000ADF8000093
:10282000A000401C31F81000ADF80200A000801C90
:1028300031F81000ADF80400A000C01C31F8100001
:10284000ADF806000120ADF808006846FFF716FC59
:10285000601C44B2701EC11700EB9171B4EBA10F64
:10286000D0DD002F30DD002427E00AF0FF008DF8D6
:102870000A000AF101004FFA80FAA00020A931F8FD
:102880001000ADF80000A000401C31F81000ADF8B9
:102890000200A000801C31F81000ADF80400A00078
:1028A000C01C31F81000ADF806000020ADF808009B
:1028B0006846FFF7E3FB601C44B2781EC11700EBCB
:1028C0009171B4EBA10FD0DDB8F1000F31DD002420
:1028D00027E00AF0FF008DF80A000AF101004FFA24
:1028E00080FAA00004A931F81000ADF80000A000A3
:1028F000401C31F81000ADF80200A000801C31F837
:102900001000ADF80400A000C01C31F81000ADF8B4
:1029100006000120ADF808006846FFF7AFFB601C19
:1029200044B2A8F10100C11700EB9171B4EBA10F03
:10293000CFDD74B0BDE8F08794030020980200203A
:102940001CB50121022005F0B9FC09220821184814
:1029500000F0F4FF09221146154800F0EFFF4FF494
:102960004070009002208DF804008DF805000020D2
:102970008DF8060069460E4800F098FF09220C21E8
:102980000B4800F0DBFF09220D21094800F0D6FFBB
:102990004FF44050009002208DF804008DF805009F
:1029A00000208DF806006946014800F07FFF1CBD3D
:1029B0000004024010B5012202210948FFF7E2FBA2
:1029C000012210210648FFF7DDFB01220221054804
:1029D000FFF7D8FB012210210248FFF7D3FB10BDFF
:1029E000006400400068004008B501208DF8030035
:1029F0008DF8010000208DF8020014208DF80000F1
:102A0000684602F00BF901208DF801008DF80200F4
:102A100015208DF80000684602F000F901208DF8BD
:102A2000010002208DF8020040208DF80000684669
:102A300002F0F4F801208DF8010003208DF8020067
:102A400041208DF80000684602F0E8F808BD00005B
:102A500070B505460C46012C03D12946044808F000
:102A600094FA022C03D12946024808F08EFA70BD70
:102A7000006400400068004010B500200449087060
:102A8000022004490870002008F0CAF910BD0000B7
:102A9000C5020020C402002070B5044605E01648B7
:102AA000056805F0450000B100E0F8E700BF04202C
:102AB00005F0BEFC20B1042005F0B4FC032070BD7D
:102AC000012005F0B5FC20B1012005F0ABFC012090
:102AD000F5E7094824380068A04201D01020EEE74D
:102AE00040F2FF5005F09EFC0348203800680821A2
:102AF0000840C0B2E3E70000342C014070B535490E
:102B0000354800F0DDF8012863D1002434E0334873
:102B100030F814003249334A127801EBC20121F82F
:102B200014003148065D06EB8600304901EB800554
:102B30002C480078052805D1284830F81400288250
:102B4000E88117E0274800787B2813DAE8892349D1
:102B500031F81410884203DA204830F81400E88174
:102B6000288A1E4931F81410884203DD1B4830F8CA
:102B700014002882601CC4B2042CC8DB19480078F9
:102B8000401C80281CDB00201649087000260EE03F
:102B900006EB8600154901EB8005E9892A8A881829
:102BA00000EBD071C1F34F016982701CC6B2042ED4
:102BB000EEDB07F025FE07F0B7FC07F04FFE04E060
:102BC00008480078401C074908700249024800F094
:102BD00047F870BD208000101064024042020020BF
:102BE0002A2F00204A0200204B020020EC01002086
:102BF00010B50549054800F063F8012803D10249E2
:102C0000024800F02DF810BD008020104064024002
:102C100010B50649064800F053F8012805D10549CA
:102C200008700249024800F01BF810BD008800201F
:102C300088640240A000002010B50749074800F052
:102C40003FF8012807D10449044800F009F80021A1
:102C5000024800F01FF810BD00800028B864024050
:102C60000246094B9A4201D2084801E00648103852
:102C700001F000531BB1064B0B40C36002E0044B54
:102C80000B40836070470000106402400060024007
:102C90007D0F7D0F21B1026842F00102026003E066
:102CA000026822F0010202607047014600200A68B3
:102CB00002F001020AB1012000E00020704700008C
:102CC00070B50246002000240025124EB24201D207
:102CD000114B01E00F4B103B104E0E4036B11E263B
:102CE00006EAD124166806EA040502E0566906F0F1
:102CF000800501F000560EB15C6800E01C68084ECB
:102D0000344004EA010616B10DB1012000E00020B4
:102D100070BD000010640240006002403C0F3C0F98
:102D20007D0F7D0F10B501F080034BB122B14369D7
:102D300043F08003436103E0436923F08003436170
:102D400080290BD02AB1036801F01E0423430360DD
:102D500004E0036801F01E04A343036010BD0000FB
:102D600010B500220268134B1A40CC680B6823434D
:102D70004C6923438C692343CC6923430C6A234366
:102D80004C6A23438C6A23434C6B23438C6B234351
:102D90001A430260426922F00702D1E90B3423434F
:102DA0001A4342610B6943604B6883608B68C36060
:102DB00010BD00003F801CF041607047704700006C
:102DC00010B5042000F0F2F8012807D10A2008F01D
:102DD00081F903480068042000F0E2F810BD00000B
:102DE0000802424210B5082000F0E0F8012810D196
:102DF0000A2008F06FF90748006838B906480068EB
:102E000008B9012000E0002003490860082000F014
:102E1000C7F810BD0C0242429402444210B5102083
:102E200000F0C4F8012810D10A2008F053F907482F
:102E3000006838B90648006808B9012000E00020A1
:102E400003490860102000F0ABF810BD10024242A8
:102E50009802444210B5202000F0A8F8012810D1B3
:102E60000A2008F037F91448006838B91348006898
:102E700008B9012000E0002010490860202000F07F
:102E80008FF8802000F092F8012813D10A2008F072
:102E900021F90A487438006848B9084808300068C1
:102EA00008B9012000E000200449083108608020B2
:102EB00000F076F810BD0000140242429002444235
:102EC0000EB501F0F7FC0121880305F027FA022175
:102ED000042005F07FFB0321042005F07BFB042187
:102EE000084605F077FB0521042005F073FB072158
:102EF000082005F06FFB3C20009000208DF80400B6
:102F00000C208DF8050001208DF80600684600F0C1
:102F100059F880200090684600F054F8BC2000F07A
:102F20003FF84FF4A06001F0B5FE08208DF80800CE
:102F300003208DF8090000208DF80A0001208DF88B
:102F40000B0002A801F06AFE09208DF8080003209A
:102F50008DF8090001208DF80A008DF80B0002A8F9
:102F600001F05CFE0A208DF8080003208DF80900AE
:102F700002208DF80A0001208DF80B0002A801F054
:102F80004DFE17208DF8080003208DF809008DF8FC
:102F90000A0001208DF80B0002A801F03FFE0EBDD3
:102FA0000149086070470000143C014001460020C0
:102FB000034A12680A400AB1012000E0002070476D
:102FC000143C0140002123498279002A3AD00A4664
:102FD000126803689A430B461A600A1D1268036858
:102FE0009A430B1D1A60027911440A6803681A4358
:102FF0000A60184A0832126803689A43154B08336E
:103000001A601A1D126803689A43124B0C331A6037
:103010004279102A0ED11A1F126803681A430D4B09
:1030200008331A601A1D126803681A43094B0C33DF
:103030001A600DE00749427911440A6803681A438F
:103040000A6005E0027911440A6803689A430A603D
:1030500070470000003C01407FB5002600254FF678
:10306000FF7001F09DFCB1A018210B464FF4967241
:10307000CDE900104FF4A571002001F056FDACA081
:1030800018210B464FF49672CDE90010062100205E
:1030900001F04BFDAFA018210B464FF49672CDE91D
:1030A00000102A21002001F040FD1AE0B04800780D
:1030B00038B10020AE490870AE4804780B2C00D01F
:1030C000012575B10025052C09D0122C08D1012647
:1030D0000420A9490870002007F0A2FE00E07FBD8F
:1030E00000BF002EE2D000260A2007F0F3FF4FF6C3
:1030F000FF7001F055FCA1A018210B464FF4967209
:10310000CDE900100621002001F00FFD9EA018213E
:103110000B464FF49672CDE900102A21002001F0F1
:1031200004FD37E09C4890ED000B8DED020B9BA059
:1031300018210B464FF49672CDE900104E21002065
:1031400001F0F3FC944890ED0A0B8DED020B98A072
:1031500018210B464FF49672CDE900107221002021
:1031600001F0E3FC8248007838B100208049087003
:10317000804804780B2C00D001255DB10025052C7A
:1031800006D0122C05D10126002007F049FE00E0F0
:10319000A5E700BF002EC5D000260A2007F09AFF41
:1031A0004FF6FF7001F0FCFB86A018210B464FF490
:1031B0009672CDE900104FF4A571002001F0B5FC26
:1031C0005BA018210B464FF49672CDE90010062142
:1031D000002001F0AAFC5FA018210B464FF4967264
:1031E000CDE900102A21002001F09FFC17E0604883
:1031F000007838B100205E4908705E4804780B2CD6
:1032000000D001255DB10025052C06D0122C05D17A
:103210000126002007F004FE00E060E700BF002E5A
:10322000E5D000260A2007F055FF4FF6FF7001F0A9
:10323000B7FB65A018210B464FF49672CDE900103C
:103240000621002001F071FC4FA018210B464FF41D
:103250009672CDE900102A21002001F066FC37E0CB
:103260004D4890ED000B8DED020B4CA018210B4644
:103270004FF49672CDE900104E21002001F055FC6C
:10328000454890ED0A0B8DED020B49A018210B4625
:103290004FF49672CDE900107221002001F045FC38
:1032A0003348007838B1002031490870314804783B
:1032B0000B2C00D001255DB10025052C06D0122C69
:1032C00005D10126002007F0ABFD00E007E700BFB5
:1032D000002EC5D00A2007F0FDFE4FF6FF7001F06A
:1032E0005FFB3CA018210B464FF49672CDE900100D
:1032F0000621002001F019FC3EA018210B464FF4D6
:103300009672CDE900102A21002001F00EFC0CE09D
:103310001748007838B1002015490870154804781E
:103320000B2C00D0012505B1D9E6F1E7582B0000A0
:1033300046696E6420612072656672656E63652001
:103340006C696E6520616E64207072657373204FC6
:103350004B000000746F206D61726B2074686520F3
:10336000737461727420706F736974696F6E00009A
:10337000A0000020C0000020C4020020582B3A50BA
:1033800075736820336D00005072657373204F4B66
:1033900020746F20656E6400D84C0020456E636F0A
:1033A0006465725B305D2E6469733A256C6600005B
:1033B000456E636F6465725B315D2E6469733A2597
:1033C0006C660000592B0000592B3A507573682029
:1033D000336D0000507265737320616E79206B65E8
:1033E0007920746F20636F6E74696E75652E2E2E52
:1033F00000000000496E766F6B6520456E636F6458
:1034000065725F5669657720746F20636865636BCA
:10341000000000007FB5002600254FF6FF7001F088
:10342000BFFA85A018210B464FF49672CDE9001023
:103430000621002001F079FB83A018210B464FF4F0
:103440009672CDE900102A21002001F06EFB1AE0EF
:103450008348007838B10020814908708148047899
:103460000B2C00D0012575B10025052C09D0122C9C
:1034700008D1012605207C490870002007F0D0FC07
:1034800000E07FBD00BF002EE2D000260A2007F03A
:1034900021FE4FF6FF7001F083FA74A018210B464D
:1034A0004FF49672CDE900100621002001F03DFB9B
:1034B00014E06B48007838B1002069490870694809
:1034C00004780B2C00D0012545B10025052C03D034
:1034D000122C02D1012600E0D3E700BF002EE8D075
:1034E00000260A2007F0F6FD4FF6FF7001F058FAAB
:1034F00066A018210B464FF49672CDE90010062104
:10350000002001F012FB64A018210B464FF49672C4
:10351000CDE900102A21002001F007FB624890ED60
:10352000000B8DED020B61A018210B464FF4967233
:10353000CDE900104E21002001F0F7FA37E05F4896
:1035400090ED000B8DED020B5DA018210B464FF4A2
:103550009672CDE900107221002001F0E6FA57487A
:1035600090ED0A0B8DED020B5AA018210B464FF47B
:103570009672CDE900109621002001F0D6FA384865
:10358000007838B1002036490870364804780B2C92
:1035900000D001255DB10025052C06D0122C05D1E7
:1035A0000126002007F03CFC00E06AE700BF002E87
:1035B000C5D000260A2007F08DFD4FF6FF7001F000
:1035C000EFF93E4890ED060B8DED020B46A0182159
:1035D0000B464FF49672CDE900100621002001F051
:1035E000A4FA364890ED100B8DED020B40A0182187
:1035F0000B464FF49672CDE900102A21002001F00D
:1036000094FA3DA018210B464FF49672CDE90010B4
:103610004E21002001F089FA0CE01148007838B101
:1036200000200F4908700F4804780B2C00D00125AA
:1036300005B126E7F1E7000046696E64206120725B
:10364000656672656E6365005072657373204F4BDB
:1036500020746F20636F6E74696E756500000000E2
:10366000A0000020C0000020C4020020707265731A
:1036700073204F4B20746F207475726E20352B2091
:10368000636972636C65732E000000007475726E5E
:10369000696E672E2E2E00005072657373204F4B9B
:1036A00020746F20656E6400A84C00204779726F0B
:1036B0002E616E676C653A256C660000D84C002060
:1036C000456E636F6465725B305D2E6469733A2585
:1036D0006C660000456E636F6465725B315D2E64DD
:1036E00069733A256C66000052313A256C66000019
:1036F00052323A256C6600006F7665720000000059
:10370000704700007FB5002600254FF6FF7001F0DE
:1037100047F9474890ED020B8DED020B45A01821AB
:103720000B464FF49672CDE900100621002001F0FF
:10373000FCF93F4890ED040B8DED020B41A01821E0
:103740000B464FF49672CDE900102A21002001F0BB
:10375000ECF9374890ED060B8DED020B3DA01821DA
:103760000B464FF49672CDE900104E21002001F077
:10377000DCF92F4890ED080B8DED020B38A01821D5
:103780000B464FF49672CDE900104E21002001F057
:10379000CCF9274890ED0C0B8DED020B33A01821CE
:1037A0000B464FF49672CDE900104E21002001F037
:1037B000BCF91F4890ED0E0B8DED020B2FA01821C8
:1037C0000B464FF49672CDE900107221002001F0F3
:1037D000ACF9174890ED100B8DED020B2BA01821C2
:1037E0000B464FF49672CDE900104E21002001F0F7
:1037F0009CF90F4890ED120B8DED020B26A01821BD
:103800000B464FF49672CDE900104E21002001F0D6
:103810008CF90CE02348007838B100202149087069
:10382000214804780B2C00D0012505B17FBDF1E7BC
:10383000D84C0020436F6E7665727431313A256C36
:1038400066000000436F6E7665727431323A256C03
:1038500066000000526164697573313A256C660038
:1038600072616469616E313A00000000436F6E76E8
:1038700065727432313A256C66000000436F6E76D3
:1038800065727432323A256C6600000052616469D8
:103890007573323A256C660072616469616E323A02
:1038A00000000000A0000020C0000020F0B50A4683
:1038B00000210023002400BF3DE0012505FA01F3AB
:1038C000156805EA03049C4234D105684F000326BD
:1038D000BE40B543056015794E00B54006683543D6
:1038E00005601579012D02D01579022D16D1856854
:1038F0004F000326BE40B543856055794E00B54064
:10390000866835438560456801268E40B54345602D
:10391000456896798E40B6B235434560C5684F001C
:103920000326BE40B543C560D5794E00B540C66894
:103930003543C560491C1029BFD3F0BDF0B5002345
:1039400000244D07ED0E02FA05F3CE1000F120051C
:1039500055F826504E07F70E0F26BE40B543CF1040
:1039600000F1200646F82750CE1000F1200555F84A
:10397000265045EA0304CE1000F1200545F8264004
:10398000F0BD00000348D0F804050078062800D0F8
:1039900000BF70479403002001460E2901DDFF207F
:1039A0007047022901DB072903DD0C2903DB0E29FF
:1039B00001DC0120F4E70220F2E70146022901DCE4
:1039C00001207047052901DC0220FAE70B2901DC00
:1039D0000320F6E70E2901DC0920F2E7FF20F0E7DB
:1039E00001460F2926D2DFE801F025080A0D0F1144
:1039F000131517191B1D1F212300104870474FF086
:103A00008040FBE70E48F9E70E48F7E70E48F5E778
:103A10000E48F3E70E48F1E70E48EFE70E48EDE7F2
:103A20000E48EBE70E48E9E70E48E7E70E48E5E702
:103A30000E48E3E700BF00BF0020DFE700000140C1
:103A40000004004000080040000C0040001000404E
:103A500000140040000401400040014000440140C7
:103A60000048014000180040001C004000200040B9
:103A70000146012901DC01207047072904DC881E6A
:103A8000012202FA00F0F7E7082901DC0220F3E73F
:103A90000B2904DCC81D012202FA00F0ECE70E2914
:103AA00004DC881F012202FA00F0E5E7FF20E3E7CB
:103AB00070B5054605EB85000A49096801EB8000F1
:103AC000A0F114042079022803D106492069086076
:103AD00006E02079012802D1A068804700E000BFFD
:103AE00070BD0000D00D00207CB5002600254FF6EB
:103AF000FF7000F055FF37A018210B464FF4967267
:103B0000CDE900100621002001F00FF836A01821A1
:103B10000B464FF49672CDE900104E21002001F0C3
:103B200004F837A018210B464FF49672CDE9001027
:103B30007221002000F0F9FFFEF79EFF0FE03348EE
:103B4000007838B1002031490870314804780B2CD6
:103B500000D001251DB10025052C00D17CBD2D48CC
:103B600000780028EBD04FF6FF7000F019FF2948CD
:103B70000078072802D0082818D10BE026A01821C9
:103B80000B464FF49672CDE900104E21002000F054
:103B9000CCFF0BE026A018210B464FF49672CDE91E
:103BA00000104E21002000F0C0FF00BF00BF0FE05A
:103BB0001648007838B10020144908701448047879
:103BC0000B2C00D001251DB10025052C00D1C5E727
:103BD000EEE700003D3D436865636B20466C6F6116
:103BE000747E3D3D00000000446F6E2774206D6FB1
:103BF00076652074686520726F626F740000000043
:103C0000202020212121212100000000A0000020EF
:103C1000C0000020C50200205A65726F20466C6FFC
:103C20006174204368616E676564212100000000B3
:103C30004779726F20496E6974204572726F7221E4
:103C4000210000007FB5002600254FF6FF7000F030
:103C5000A7FED9A018210B464FF49672CDE90010AB
:103C60000621002000F061FF1AE0D948007838B141
:103C70000020D7490870D74804780B2C00D00125C4
:103C800075B10025052C09D0122C08D1012603207E
:103C9000D1490870002007F0C3F800E07FBD00BFE5
:103CA000002EE2D000260A2007F014FA4FF6FF702B
:103CB00000F076FEC9A018210B464FF49672CDE9AC
:103CC00000100621002000F030FFC9A018210B468B
:103CD0004FF49672CDE900102A21002000F025FF54
:103CE00011E0BB48007838B10020B9490870B948E4
:103CF00004780B2C00D001252DB10025122C01D108
:103D0000012600BF00BF002EEBD000260A2007F0DE
:103D1000E1F94FF6FF7000F043FEBDA018210B46FD
:103D20004FF49672CDE900100621002000F0FDFE50
:103D3000BBA018210B464FF49672CDE900102A2142
:103D4000002000F0F2FE11E0A148007838B1002018
:103D50009F4908709F4804780B2C00D001252DB195
:103D60000025122C01D1012600BF00BF002EEBD090
:103D700000260A2007F0AEF94FF6FF7000F010FEA3
:103D8000ACA018210B464FF49672CDE90010062125
:103D9000002000F0CAFEADA018210B464FF4967229
:103DA000CDE900102A21002000F0BFFE14E0884871
:103DB000007838B1002086490870864804780B2CBA
:103DC00000D0012545B10025122C04D10126002088
:103DD00007F026F800BF00BF002EE8D000260A201A
:103DE00007F078F94FF6FF7000F0DAFD9EA0182179
:103DF0000B464FF49672CDE900102A21002000F006
:103E000094FE9EA018210B464FF49672CDE9001047
:103E10004E21002000F089FEA04890ED020B8DEDB0
:103E2000020B9FA018210B464FF49672CDE90010AB
:103E30000621002000F079FE11E06548007838B1D5
:103E4000002063490870634804780B2C00D00125DA
:103E50002DB10025122C01D1012600BF00BF002E7C
:103E6000EBD000260A2007F035F94FF6FF7000F07E
:103E700097FD67A018210B464FF49672CDE900100C
:103E80000621002000F051FE65A018210B464FF4DA
:103E90009672CDE900102A21002000F046FE11E0C4
:103EA0004B48007838B100204949087049480478E7
:103EB0000B2C00D001252DB10025122C01D101269B
:103EC00000BF00BF002EEBD000260A2007F002F949
:103ED0004FF6FF7000F064FD56A018210B464FF41A
:103EE0009672CDE900100621002000F01EFE57A0BA
:103EF00018210B464FF49672CDE900102A210020BC
:103F000000F013FE14E03248007838B10020304948
:103F10000870304804780B2C00D0012545B10025ED
:103F2000122C04D1002006F07BFF012600BF00BF49
:103F3000002EE8D000260A2007F0CCF84FF6FF70DC
:103F400000F02EFD554890ED020B8DED020B57A0B1
:103F500018210B464FF49672CDE90010062100207F
:103F600000F0E3FD4D4890ED040B8DED020B53A0E6
:103F700018210B464FF49672CDE900102A2100203B
:103F800000F0D3FD51A018210B464FF49672CDE9F5
:103F900000104E21002000F0C8FD0CE00C48007815
:103FA00038B100200A4908700A4804780B2C00D068
:103FB000012505B172E6F1E746696E642061207261
:103FC000656672656E636520626F7264657200007B
:103FD000A0000020C0000020C402002050726573C1
:103FE00073204F4B20746F20737461727400000053
:103FF0005374617274207475726E696E67206D659A
:10400000202B313020636972636C657300000000FF
:1040100049276D207475726E696E67212121000039
:104020005072657373204F4B20746F2073746F70E0
:10403000000000004261636B20746F20746865208B
:1040400072656672656E6365202D0000626F726432
:10405000657220616E64207072657373204F4B200F
:10406000746F20656E6400005072657373204F6B2F
:1040700020746F207374617274202E005374617207
:1040800074207475726E696E67206D65202D3130F5
:1040900020636972636C657300000000A84C002007
:1040A000436F6E313A256C6600000000436F6E76F8
:1040B000657274313A256C6600000000436F6E76BD
:1040C000657274323A256C660000000050726573A8
:1040D0007320616E79206B657920746F20636F6E39
:1040E00074696E75652E2E2E000000007FB50026C7
:1040F00000252D4890ED000B2C4880ED000B2C483E
:1041000090ED000B2B4880ED000B2BA1274800F011
:10411000ADF8102006F084FE2AA1264800F0A6F88B
:10412000112006F07DFE0A2006F0D4FF4FF6FF7046
:1041300000F036FC264890ED020B8DED020B25A019
:1041400018210B464FF49672CDE90010062100208D
:1041500000F0EBFC1E4890ED040B8DED020B21A04E
:1041600018210B464FF49672CDE900102A21002049
:1041700000F0DBFC1FA018210B464FF49672CDE92E
:1041800000104E21002000F0D0FC0CE02148007807
:1041900038B100201F4908701F4804780B2C00D04C
:1041A000012505B17FBDF1E710030020E0020020EA
:1041B00018030020E8020020436F6E7665727431A8
:1041C00000000000436F6E766572743200000000DC
:1041D000A84C0020436F6E76657274313A256C6688
:1041E00000000000436F6E76657274323A256C668B
:1041F00000000000507265737320616E79206B655A
:104200007920746F20636F6E74696E75652E2E2E23
:1042100000000000A0000020C000002000BFFEE75A
:104220001F210F4A1170002005E040F2E7310D4ACE
:1042300022F81010401CB0F57A7FF6DB002009E070
:1042400000EB8002084B03EB82025288054B23F8F7
:104250001200401C024909788842F1DB70470000D7
:104260009802002000060020940300202DE9F0476A
:104270002DED0A8B8AB0064688464FF0000AD848D2
:1042800090F800909FEDD70BB0EE409AF0EE609A58
:10429000142105A8FCF712FA20208DF8140001243F
:1042A0009FEDD00BB0EE409AF0EE609A0120CC4921
:1042B000087004F0E7FA182003464FF496720621BE
:1042C000CDE90008002000F0FDFB96ED000B8DED20
:1042D000020BC6A018210B464FF49672CDE90010D0
:1042E0002A21002000F021FC05A8C2A118221346B3
:1042F000CDE9002102904FF496724E21002000F08B
:1043000014FC00BFBD48007840B10020BB490870D4
:10431000BB4807780B2F01D04FF0010ABAF1000F0C
:1043200076D04FF0000A142F12D2DFE807F0110AFE
:10433000121A22FE112A323A4211114A525A727E40
:1043400091FD0E2C04DA31222046641C05A90A5482
:1043500026E10E2C04DA32222046641C05A90A54F8
:104360001EE10E2C04DA33222046641C05A90A54EF
:1043700016E10E2C04DA34222046641C05A90A54E6
:104380000EE10E2C04DA35222046641C05A90A54DD
:1043900006E10E2C04DA36222046641C05A90A54D4
:1043A000FEE00E2C04DA37222046641C05A90A54CC
:1043B000F6E00E2C04DA38222046641C05A90A54C3
:1043C000EEE00E2C04DA39222046641C05A90A54BA
:1043D000E6E00E2C04DA30222046641C05A90A54BB
:1043E000DEE09FED800B53EC102B51EC190B08F025
:1043F00019FA0CD10E2C0ADA2E222046641C05A9CB
:104400000A549FED800BB0EE409AF0EE609AC7E040
:10441000E1E09DF81400202803D12D208DF8140030
:1044200002E020208DF81400BAE0012C0FDD601EA0
:1044300005A9085C2E2805D19FED6A0BB0EE409AC5
:10444000F0EE609A0021601E044605AA1154A7E010
:104450009FED648B9FED630BB0EE409AF0EE609A97
:10446000012551E005A8405D2E2806D19FED670B80
:10447000B0EE409AF0EE609A45E09FED5A0B53EC97
:10448000102B51EC190B08F0CDF91ED105A9485D90
:1044900008F048FA41EC1B0B9FED5C0B53EC102B22
:1044A00051EC180B08F08EFA41EC1C0B53EC1B2B53
:1044B00007F0ACFF41EC1A0B9FED560B53EC102BA1
:1044C00008F080FC41EC180B1DE005A9495DA1F145
:1044D000300008F010FA41EC1B0B53EC192B08F0DC
:1044E00049F841EC1A0B53EC182B07F08FFF41EC05
:1044F000180B9FED460B53EC102B51EC190B08F0E9
:1045000061FA41EC190B6D1CA542ABDB9DF8140060
:104510002D2805D151EC180B07F06CFF41EC180B5E
:1045200086ED008B2E4801E00BE006E080F800905D
:104530000AB0BDEC0A8BBDE8F087294880F80090EE
:10454000F6E72748007808B9012000E00020244958
:10455000087004F097F9182003464FF4967206216C
:10456000CDE90008002000F0ADFA96ED000B8DEDCE
:10457000020B2AA018210B464FF49672CDE90010C9
:104580002A21002000F0D1FA26A018210B464FF472
:104590009672CDE900104E21002000F0C6FA00BF4F
:1045A00000BF4FF6FF70009020480088401E82B286
:1045B00066234E21302000F00AFA05A80EA1182229
:1045C0001346CDE9002102904FF496724E2130201F
:1045D00000F0ABFA96E6012006F07CFD92E60000C2
:1045E000B40F002000000000000000006F6C643A6F
:1045F000256C66006E65773A25730000A0000020E8
:10460000C0000020000000000000F03F000000009B
:104610000000244000000000000048406F6C643A35
:10462000256400006E65773A00000000C82D002068
:104630002DE9F04F89B0054689464FF0000B9348AD
:1046400090F800A0142104A8FCF738F820208DF879
:104650001000012401208D49087004F013F918207E
:1046600003464FF496720621CDE90009002000F0C0
:1046700029FA87A1182228681346CDE90021029063
:104680004FF496722A21002000F04FFA04A882A16C
:1046900018221346CDE9002102904FF496724E2164
:1046A000002000F042FA00BF7D48007840B10020B1
:1046B0007B4908707B4806780B2E01D04FF0010B28
:1046C000BBF1000F73D04FF0000B142E12D2DFE8B5
:1046D00006F0BD0A121A228CBD2A323A42BDBD4AEA
:1046E00052BD5A666F900E2C04DA31222046641CAB
:1046F00004A90A54AAE00E2C04DA32222046641CD3
:1047000004A90A54A2E00E2C04DA33222046641CC9
:1047100004A90A549AE00E2C04DA34222046641CC0
:1047200004A90A5492E00E2C04DA35222046641CB7
:1047300004A90A548AE00E2C04DA36222046641CAE
:1047400004A90A5482E00E2C04DA37222046641CA5
:1047500004A90A547AE00E2C04DA38222046641C9C
:1047600004A90A5472E00E2C04DA39222046641C93
:1047700004A90A546AE00E2C04DA30222046641C94
:1047800004A90A5462E09DF81000202803D12D20CE
:104790008DF8100002E020208DF8100056E0012C6A
:1047A00004DD0021601E044604AA11544EE068E0B6
:1047B00000274FF001080AE004A810F8080007EBF2
:1047C000870100EB4100A0F1300708F10108A04586
:1047D000F2DB9DF810002D2800D17F422F602B487E
:1047E00080F800A009B0BDE8F08F284880F800A04C
:1047F000F8E72648007808B9012000E000202349A6
:10480000087004F03FF8182003464FF49672062112
:10481000CDE90009002000F055F91DA118222868F3
:104820001346CDE9002102904FF496722A21002010
:1048300000F07BF91CA018210B464FF49672CDE9CD
:1048400000104E21002000F070F900BF00BF4FF6AD
:10485000FF70009016480088401E82B266234E21E9
:10486000302000F0B4F804A80CA118221346CDE9BA
:10487000002102904FF496724E21302000F055F93D
:1048800012E7012006F026FC0EE70000B40F00201E
:104890006F6C643A256400006E65773A25730000FA
:1048A000A0000020C00000206E65773A00000000E4
:1048B000C82D00201CB501214FF4887003F0FEFCC8
:1048C0003C20009000208DF8040002208DF80500A7
:1048D00001208DF8070069460448FEF7E7FF8020B5
:1048E000009069460248FEF7E1FF1CBD001002403F
:1048F0000020024010B50446142C45D2DFE804F035
:10490000440A0E12161A4425292D314444354444D4
:10491000444444390120FFF7CBF836E00220FFF78A
:10492000C7F832E00320FFF7C3F82EE00420FFF7BA
:10493000BFF82AE0174800681749884204D0154894
:104940000068C068134908601FE00520FFF7B0F851
:104950001BE00620FFF7ACF817E00720FFF7A8F8E8
:1049600013E00820FFF7A4F80FE00920FFF7A0F8F4
:104970000BE00A48007808B9012000E00020074950
:10498000087003F07FFF00BF00BF00BF04F036FADD
:1049900010BD0000D00D0020D40D0020B40F002069
:1049A0000146FF22074B1A70FE2283F85321012093
:1049B00004E02022034B1A54421C90B2B0F5A97FA8
:1049C000F7DD7047D62D002070477047704710B54F
:1049D000029C10BD00B54FF6FF70FFF7E1FF00BD70
:1049E00010B50246012000E050430B1EA1F1010466
:1049F000E1B2F9D110BD7047F0B5059CB0F5967FD6
:104A000002DCB1F5D87F00DDF0BD0C2590FBF5F59B
:104A1000242691FBF6F606EB860707EBC60605EBA8
:104A200046056D1C014E725500BFEDE7D62D0020E6
:104A30002DE9FF4F81B0074691461E460E9D4FF06F
:104A4000000A002439E0301B401EC1B20A20FFF7E3
:104A5000C7FFB9FBF0F00A21B0FBF1F201FB12082D
:104A6000BAF1000F16D1701EA04213DDB8F1000F8D
:104A70000ED10020AB4605EBDB71491001FB047140
:104A8000009088B22B4620220299FFF7B5FF12E072
:104A90004FF0010A0020AB4605EBDB71491001FB2A
:104AA0000471009088B208F13001CAB22B46029915
:104AB000FFF7A2FF00BF601CC4B2B442C3DB05B065
:104AC000BDE8F08F2DE9F84704460D46904699461B
:104AD000DDE9096704F0FF0A08EB04001FFA80F81B
:104AE00009EB05001FFA80F916E0444502DB544645
:104AF000A81985B24D4500DB14E0002000903A78FB
:104B0000334629462046FFF777FF304606EBD07143
:104B100004EB61018CB27F1C38787E2802DC387887
:104B20002028E2DA00BFBDE8F8872DE9F041A4B003
:104B300004460D4616461F46DDF8A8802CA8239093
:104B400003A8239A2B99FBF71FFC0020239003A8AE
:104B50003B4632462946CDE900802046FFF7B2FFAA
:104B600024B0BDE8F08100001CB50121080203F06B
:104B7000A5FB7020009001208DF8040000208DF826
:104B8000060002208DF8050001208DF80700694617
:104B90000548FEF78BFE012004490860091F0860E4
:104BA000091F08601CBD000000200240980244421A
:104BB00000BFFEE730B505460C46224600212846D8
:104BC00000F001F830BD2DE9F04105460B46944652
:104BD0000027002402E03F021F43641C042CFAD388
:104BE000604605F00306294646B1344603E001F865
:104BF000013B401E641C08B1042CF8D30A4601E0B6
:104C000080C2001F0428FBD2114602E001F8013BDC
:104C1000401E0028FAD1BDE8F081704770B5002130
:104C200000230F22C4781CB3174C246804F4E064FA
:104C3000C4F5E064C4F30721C1F10404E3B20A41FE
:104C400044789C40E1B28478144021430C07210E43
:104C50000E4C05786155047804F01F050124AC4022
:104C600005786D11AD0005F1E025C5F8004109E0BA
:104C7000047804F01F050124AC40054D0678761138
:104C800045F8264070BD00000CED00E000E400E0B7
:104C900080E100E002490143024A116070470000D0
:104CA0000000FA050CED00E07047000010B5034865
:104CB000006810B101480068804710BDE40F002073
:104CC00070B5044600F0BCF800204549087045491D
:104CD00008704549087045490860454908604549DC
:104CE00008704549087045490870454908604549BC
:104CF00008604549086045490870454800680A2130
:104D0000B0FBF1F0434908604348006858B143489C
:104D1000056845B14048066803E0761E002028601B
:104D20002D1D002EF9D100203D4908603D49086045
:104D30003D4908603D4908603D4908603D490860BB
:104D40003D4908603D49087001F06AFE01F0A4FE8B
:104D5000204601F0B7FB208800B170BD204601F06D
:104D600017FC208800B1F8E7204601F01DFC2088E0
:104D700000B1F2E7204601F097FC208800B1ECE793
:104D8000204601F07DFE208800B1E6E7204601F0D4
:104D9000CDFF208800B1E0E7204602F0FDF9208831
:104DA00000B1DAE7204601F0BBFB208800B1D4E770
:104DB000204602F017FE208800B1CEE7204602F020
:104DC00035F9208800B1C8E7204602F06FFE208840
:104DD00000B1C2E701F0A2FAFFF766FF00BFBCE72F
:104DE000F80F0020F90F00202C1000209C1000204C
:104DF000A01000201210002013100020141000201A
:104E00002010002024100020281000203410002042
:104E100080D100083010002050D100084CD100088B
:104E2000D80F0020DC0F0020E00F0020E40F00204E
:104E3000E80F0020EC0F0020F00F0020621000208F
:104E4000064800680649096800EB810005490860CA
:104E50000846006820F00700086070474CD1000841
:104E600050D10008A410002008480078012800D084
:104E7000704707480078FA2800DBF9E70448007813
:104E8000401C0349087000BFF2E70000F90F002042
:104E9000F80F002010B500242D480078012800D01C
:104EA00010BD00BFFBF75AFA044600BF294800783E
:104EB00028B900BF2046FBF755FA00BFF0E72548A8
:104EC0000078401E2349087008460078002805DD58
:104ED00000BF2046FBF746FA00BFE1E71E48007816
:104EE000002805DD00BF2046FBF73CFA00BFD7E7EE
:104EF00001F082FD194908700846007800EB400077
:104F0000174951F8200017490860084600681649FB
:104F10000968884205D100BF2046FBF723FA00BF8D
:104F2000BEE710480068D0F88C00401C0D490968A5
:104F3000C1F88C000D480068401C0C490860FCF763
:104F4000C7FE00BF2046FBF70DFA00BF00BFA7E772
:104F5000F90F0020F80F00202C1000201310002063
:104F60003C470020A01000209C100020581000207A
:104F70002DE9F04104460E46154600271B480078EF
:104F8000002804DD42F6E1602880BDE8F0811CB90C
:104F900045F6C3502880F8E700BF00BFFBF7DEF9F5
:104FA000074600BF00BF12482060666000202062F4
:104FB00084F82500A062402084F8240004F1080051
:104FC00001F029FC204601F057FB0A480088401CEC
:104FD0000849088000BF00BF3846FBF7C3F900BF8F
:104FE00000BF0020288000BFCFE70000F80F00209E
:104FF0004D555458101000202DE9F04788B0054653
:10500000894690461C46109E4FF0000A8A48007858
:10501000002805DD46F2AE10308008B0BDE8F0870C
:105020001DB945F6C3503080F7E7B8F1000F03D043
:10503000B8F5004F02D100E000BF03E045F625605F
:105040003080EAE700BF7D492868884203D045F6F2
:10505000C4503080E1E70CB10020206000BF00BFE9
:10506000FBF77CF9824600BF00BF95F82500C0B968
:105070007348006828627248006890F8370085F825
:105080002400012085F825000CB1A86A206000BF2B
:1050900000BF5046FBF766F900BF00BF002030801C
:1050A000BBE76749286A0968884212D195F825004C
:1050B000401C85F825000CB1A86A206000BF00BF25
:1050C0005046FBF74FF900BF00BF45F282703080B9
:1050D000A3E708F4004050B100BF00BF5046FBF703
:1050E00041F900BF00BF46F2B010308095E7554847
:1050F000007800280ADD00BF00BF5046FBF732F9F8
:1051000000BF00BF46F66350308086E72F6A97F8ED
:1051100037004B49096891F8371088423ADD97F813
:10512000360008282AD2DFE800F004151E1F1716E3
:105130002021384601F038FD4148006890F83700DA
:1051400087F8370097F8370001F076FC384601F011
:10515000CBFC1EE000BF00BF3948006890F8370064
:1051600087F8370015E000BF00BF00BF3448006873
:1051700090F83710384601F02BFB0AE000BF00BF63
:105180005046FBF7EFF800BF00BF46F62D603080B9
:1051900043E700BF4B4604222946684601F090FAD7
:1051A00000BF00BF5046FBF7DDF800BF00BF00F0B6
:1051B00005F900BF00BFFBF7D1F8824600BF00BF72
:1051C0001F48006890F8350030B101280CD0022843
:1051D0001AD0032821D110E01CB119480068006CD6
:1051E0002060002030801CE01CB115480068006C75
:1051F000206046F2A910308013E00CB1002020603E
:1052000047F2D92030800CE01CB10D480068006CDA
:10521000206045F6C250308003E046F62E603080B4
:1052200000BF00BF00BF00BF5046FBF79BF800BFA8
:1052300000BF00BFF1E60000F80F00204D555458A4
:105240009C1000202C1000202DE9F84F04468846C1
:1052500015464FF0000A55480078002804DD46F254
:105260000E202880BDE8F88F1CB945F6C350288071
:10527000F8E7B8F1000F03D0B8F5004F02D100E015
:1052800000BF03E045F625602880EBE700BF4849F2
:105290002068884203D045F6C4502880E2E700BF6A
:1052A00000BFFBF75BF8824600BF00BF4149206AA0
:1052B000096888420AD000BF00BF5046FBF752F889
:1052C00000BF00BF45F281702880CBE7FDF76EF983
:1052D0000746A76294F82500401E84F8250094F83C
:1052E000250000280ADD00BF00BF5046FBF73AF852
:1052F00000BF00BF45F283702880B3E704F10809BE
:10530000B9F8080068B90020206284F8250000BFC1
:1053100000BF5046FBF726F800BF00BF00202880E2
:10532000A0E72448006890F8370094F824108842D9
:1053300019D02048006801F037FC94F824001D497A
:10534000096881F837001B49096891F8370001F0B6
:1053500073FB1848006801F0E7FB1648006890F8F6
:10536000370015490870D9F800008668266296F85B
:10537000370084F82400012084F8250000231A4611
:1053800031462046009701F0B7FA00BF00BF5046F3
:10539000FAF7E8FF00BF00BF08F4004008B900F0CA
:1053A0000DF80020288000BF5CE70000F80F002007
:1053B0004D5554589C1000201210002010B50024A8
:1053C0001F480078002800DD10BD1E480078002826
:1053D00000DDF9E700BFFAF7C1FF044600BF01F0A6
:1053E0000BFB194908700846007800EB400017498C
:1053F00051F82000164908600846006815490968F8
:10540000884205D100BF2046FAF7ACFF00BFDBE7BA
:105410000F480068D0F88C00401C0D490968C1F89D
:105420008C000D480068401C0B490860FCF74BFCE1
:1054300000BF2046FAF796FF00BF00BFC4E7000098
:10544000F80F00202C100020131000203C470020F3
:10545000A01000209C1000205810002070B50446B9
:10546000002518480078002803DD46F662502080A9
:1054700070BD15480078012803D045F6896020806A
:10548000F6E712480078FA2803DB45F2092020806D
:10549000EEE700BF00BFFAF761FF054600BF00BF9F
:1054A0000A480078401C0949087001F0ABFB00BFB6
:1054B00000BF2846FAF756FF00BF00BF002020803B
:1054C00000BFD5E7F80F0020F90F00202C100020B6
:1054D0002DE9F04105460C461646002700BF00BFE7
:1054E000FAF73CFF074600BF00BF012D03D00020A4
:1054F0000D49087002E001200B49087014B10B48F7
:10550000046006E00A4800680A21B0FBF1F0074990
:10551000086000BF00BF3846FAF724FF00BF00BF95
:1055200000203080BDE8F0813410002030100020D1
:1055300080D1000870B50446002520480078002876
:1055400003DD46F66550208070BD1D4800780128B7
:1055500003D045F689602080F6E71A48007818B92C
:1055600046F664502080EFE700BF00BFFAF7F6FE72
:10557000054600BF00BF13480078401E114908705F
:105580000846007800280ADD00BF00BF2846FAF769
:10559000E9FE00BF00BF46F663502080D4E701F06B
:1055A0003FFB00BF00BF2846FAF7DCFE00BF00BF8C
:1055B000FFF704FF0020208000BFC5E7F80F0020A0
:1055C000F90F00202C10002010B504461248007876
:1055D000E8B901F011FA114908700846007810493D
:1055E00008700E48007800EB40000E4951F820008A
:1055F0000D490860084600680C490860012006490A
:105600000870FCF74FFB43F69920208002E045F636
:105610008A60208010BD0000F90F002013100020C8
:10562000121000203C470020A01000209C100020F9
:105630002DE9F04107464FF0000800BF00BFFAF720
:105640008DFE804600BF00BF00203B4908803B49DB
:1056500008603B4908603B4908603B4908603B499A
:10566000088100BF00BF4046FAF77CFE00BF00BFC4
:1056700000BF00BFFAF772FE804600BF00BF34488B
:10568000046800BF00BF4046FAF76CFE00BF00BFD1
:1056900021E000BF00BFFAF761FE804600BF00BFF7
:1056A00000207434E06320602063A061A082E08267
:1056B0006062A062FCF77AFF2062743C04F160062D
:1056C0000020B081D4F8B84000BF00BF4046FAF7D0
:1056D00049FE00BF00BF002CDBD100BF00BFFAF7BE
:1056E0003DFE804600BF00BF1A48056800BF00BFEE
:1056F0004046FAF737FE00BF00BF12E000BF00BF10
:10570000FAF72CFE804600BF00BF05F120060020FE
:10571000B081AD6900BF00BF4046FAF723FE00BF6D
:1057200000BF002DEAD102F06DF802F065FA00200A
:105730003880BDE8F08100004210002054100020A5
:10574000681000208C10002024100020304700201A
:105750005C10002018100020F8B5044600266946A9
:10576000324800F0E7FCBDF8000018B1BDF80000B9
:105770002080F8BD6A460021022000F03BFDBDF804
:10578000000018B1BDF800002080F2E700BF00BFA4
:10579000FAF7E4FD064600BF00BF00202449086078
:1057A00000BF00BF3046FAF7DDFD00BF00BF002597
:1057B0002048006820490968884205D91D480068CA
:1057C0001D490968B0FBF1F525B91A4800680A219E
:1057D000B0FBF1F56A460021284600F00BFD694652
:1057E000124800F0C1F9BDF8000018B1BDF8000082
:1057F0002080BEE700BF00BFFAF7B0FD064600BF3D
:1058000000BF00200D490860094800680C49086085
:1058100001200C49087000BF00BF3046FAF7A2FD16
:1058200000BF00BF0020208000BFA2E7E84B00209F
:105830004410002080D1000868D1000854100020D6
:10584000481000205010002010B50348006810B127
:1058500001480068804710BDE80F00202DE9FF4F88
:1058600085B004469046DDE91995159F139E0020EA
:10587000029061480078002805DD47F24A10288030
:1058800009B0BDE8F08F1CB947F2AD102880F7E7EA
:10589000B8F1000F03D147F24F102880F0E71EB98E
:1058A00046F62F602880EBE754480068874203D211
:1058B00046F630602880E3E71498B84203D346F6F2
:1058C00031602880DCE71298402803D346F2732029
:1058D0002880D5E712983F2806D14948844203D052
:1058E00046F273202880CBE7204601F065FC0020BB
:1058F000288009F0010088B109F0020070B1B346B8
:105900000020049007E00020CBF800000BF1040B0E
:105910000498401C04900498B842F4D3149806EB01
:1059200080000390CDE9007932464046039B0899F8
:1059300000F0D2FA8346C4F828800898E0620698FE
:105940002062129884F83700C4F800B00398A06071
:1059500017982065179818B92A480068606501E013
:1059600017986065189860606662A763A4F83C9019
:105970004FF0000A08E0002104F1780040F82A10F6
:105980000AF1010000F0FF0ABAF1000FF3D004F1B0
:105990006000169900F068FE204600F039F800BF5C
:1059A00000BFFAF7DBFC029000BF00BF94F837009D
:1059B00001F042F8204601F0B7F8204601F0B2FBB2
:1059C00011480088401C10490880104800780128C0
:1059D00007D000BF00BF0298FAF7C4FC00BF00BFA9
:1059E0004EE700BF00BF0298FAF7BCFC00BF00BF43
:1059F000FFF7E4FC00BF43E7F80F00207CD100086C
:105A0000704600203010002060100020F90F0020A8
:105A100010B504460348006818B1204601490968DA
:105A2000884710BDD80F002070B504460D460026EB
:105A300043480078002803DD47F24E10288070BDEF
:105A40004048844203D147F24C102880F7E77CB9E4
:105A500000BF00BFFAF782FC064600BF00BF3A480D
:105A6000046800BF00BF3046FAF77CFC00BF00BFEF
:105A700000BF00BFFAF772FC064600BF00BF94F8F3
:105A8000360008282DD2DFE800F004090E10080ABD
:105A90000F11204601F088F82EE02DE000BF2046CF
:105AA00001F084FE28E000BF00BF00BF94F834007E
:105AB000082810D2DFE800F004070508090A0B06E1
:105AC00000BF00BF08E000BF00BF00BF00BF20460E
:105AD00000F0D9FE00E000BF00BF204601F066FEE6
